{
  "_format": "hh-sol-artifact-1",
  "contractName": "MyEpicNFT",
  "sourceName": "contracts/MyEpicNFT.sol",
  "abi": [
    {
      "inputs": [],
      "stateMutability": "nonpayable",
      "type": "constructor"
    },
    {
      "anonymous": false,
      "inputs": [
        {
          "indexed": true,
          "internalType": "address",
          "name": "owner",
          "type": "address"
        },
        {
          "indexed": true,
          "internalType": "address",
          "name": "approved",
          "type": "address"
        },
        {
          "indexed": true,
          "internalType": "uint256",
          "name": "tokenId",
          "type": "uint256"
        }
      ],
      "name": "Approval",
      "type": "event"
    },
    {
      "anonymous": false,
      "inputs": [
        {
          "indexed": true,
          "internalType": "address",
          "name": "owner",
          "type": "address"
        },
        {
          "indexed": true,
          "internalType": "address",
          "name": "operator",
          "type": "address"
        },
        {
          "indexed": false,
          "internalType": "bool",
          "name": "approved",
          "type": "bool"
        }
      ],
      "name": "ApprovalForAll",
      "type": "event"
    },
    {
      "anonymous": false,
      "inputs": [
        {
          "indexed": false,
          "internalType": "address",
          "name": "sender",
          "type": "address"
        },
        {
          "indexed": false,
          "internalType": "uint256",
          "name": "tokenId",
          "type": "uint256"
        }
      ],
      "name": "NewEpicNFTMinted",
      "type": "event"
    },
    {
      "anonymous": false,
      "inputs": [
        {
          "indexed": true,
          "internalType": "address",
          "name": "from",
          "type": "address"
        },
        {
          "indexed": true,
          "internalType": "address",
          "name": "to",
          "type": "address"
        },
        {
          "indexed": true,
          "internalType": "uint256",
          "name": "tokenId",
          "type": "uint256"
        }
      ],
      "name": "Transfer",
      "type": "event"
    },
    {
      "inputs": [
        {
          "internalType": "address",
          "name": "to",
          "type": "address"
        },
        {
          "internalType": "uint256",
          "name": "tokenId",
          "type": "uint256"
        }
      ],
      "name": "approve",
      "outputs": [],
      "stateMutability": "nonpayable",
      "type": "function"
    },
    {
      "inputs": [
        {
          "internalType": "address",
          "name": "owner",
          "type": "address"
        }
      ],
      "name": "balanceOf",
      "outputs": [
        {
          "internalType": "uint256",
          "name": "",
          "type": "uint256"
        }
      ],
      "stateMutability": "view",
      "type": "function"
    },
    {
      "inputs": [
        {
          "internalType": "uint256",
          "name": "tokenId",
          "type": "uint256"
        }
      ],
      "name": "getApproved",
      "outputs": [
        {
          "internalType": "address",
          "name": "",
          "type": "address"
        }
      ],
      "stateMutability": "view",
      "type": "function"
    },
    {
      "inputs": [],
      "name": "getCurrentCount",
      "outputs": [
        {
          "internalType": "uint256",
          "name": "",
          "type": "uint256"
        }
      ],
      "stateMutability": "view",
      "type": "function"
    },
    {
      "inputs": [
        {
          "internalType": "address",
          "name": "owner",
          "type": "address"
        },
        {
          "internalType": "address",
          "name": "operator",
          "type": "address"
        }
      ],
      "name": "isApprovedForAll",
      "outputs": [
        {
          "internalType": "bool",
          "name": "",
          "type": "bool"
        }
      ],
      "stateMutability": "view",
      "type": "function"
    },
    {
      "inputs": [],
      "name": "makeAnEpicNFT",
      "outputs": [],
      "stateMutability": "nonpayable",
      "type": "function"
    },
    {
      "inputs": [],
      "name": "name",
      "outputs": [
        {
          "internalType": "string",
          "name": "",
          "type": "string"
        }
      ],
      "stateMutability": "view",
      "type": "function"
    },
    {
      "inputs": [
        {
          "internalType": "uint256",
          "name": "tokenId",
          "type": "uint256"
        }
      ],
      "name": "ownerOf",
      "outputs": [
        {
          "internalType": "address",
          "name": "",
          "type": "address"
        }
      ],
      "stateMutability": "view",
      "type": "function"
    },
    {
      "inputs": [
        {
          "internalType": "uint256",
          "name": "tokenId",
          "type": "uint256"
        }
      ],
      "name": "pickRandomFirstWord",
      "outputs": [
        {
          "internalType": "string",
          "name": "",
          "type": "string"
        }
      ],
      "stateMutability": "view",
      "type": "function"
    },
    {
      "inputs": [
        {
          "internalType": "uint256",
          "name": "tokenId",
          "type": "uint256"
        }
      ],
      "name": "pickRandomSecondWord",
      "outputs": [
        {
          "internalType": "string",
          "name": "",
          "type": "string"
        }
      ],
      "stateMutability": "view",
      "type": "function"
    },
    {
      "inputs": [
        {
          "internalType": "uint256",
          "name": "tokenId",
          "type": "uint256"
        }
      ],
      "name": "pickRandomThirdWord",
      "outputs": [
        {
          "internalType": "string",
          "name": "",
          "type": "string"
        }
      ],
      "stateMutability": "view",
      "type": "function"
    },
    {
      "inputs": [
        {
          "internalType": "address",
          "name": "from",
          "type": "address"
        },
        {
          "internalType": "address",
          "name": "to",
          "type": "address"
        },
        {
          "internalType": "uint256",
          "name": "tokenId",
          "type": "uint256"
        }
      ],
      "name": "safeTransferFrom",
      "outputs": [],
      "stateMutability": "nonpayable",
      "type": "function"
    },
    {
      "inputs": [
        {
          "internalType": "address",
          "name": "from",
          "type": "address"
        },
        {
          "internalType": "address",
          "name": "to",
          "type": "address"
        },
        {
          "internalType": "uint256",
          "name": "tokenId",
          "type": "uint256"
        },
        {
          "internalType": "bytes",
          "name": "data",
          "type": "bytes"
        }
      ],
      "name": "safeTransferFrom",
      "outputs": [],
      "stateMutability": "nonpayable",
      "type": "function"
    },
    {
      "inputs": [
        {
          "internalType": "address",
          "name": "operator",
          "type": "address"
        },
        {
          "internalType": "bool",
          "name": "approved",
          "type": "bool"
        }
      ],
      "name": "setApprovalForAll",
      "outputs": [],
      "stateMutability": "nonpayable",
      "type": "function"
    },
    {
      "inputs": [
        {
          "internalType": "bytes4",
          "name": "interfaceId",
          "type": "bytes4"
        }
      ],
      "name": "supportsInterface",
      "outputs": [
        {
          "internalType": "bool",
          "name": "",
          "type": "bool"
        }
      ],
      "stateMutability": "view",
      "type": "function"
    },
    {
      "inputs": [],
      "name": "symbol",
      "outputs": [
        {
          "internalType": "string",
          "name": "",
          "type": "string"
        }
      ],
      "stateMutability": "view",
      "type": "function"
    },
    {
      "inputs": [
        {
          "internalType": "uint256",
          "name": "tokenId",
          "type": "uint256"
        }
      ],
      "name": "tokenURI",
      "outputs": [
        {
          "internalType": "string",
          "name": "",
          "type": "string"
        }
      ],
      "stateMutability": "view",
      "type": "function"
    },
    {
      "inputs": [
        {
          "internalType": "address",
          "name": "from",
          "type": "address"
        },
        {
          "internalType": "address",
          "name": "to",
          "type": "address"
        },
        {
          "internalType": "uint256",
          "name": "tokenId",
          "type": "uint256"
        }
      ],
      "name": "transferFrom",
      "outputs": [],
      "stateMutability": "nonpayable",
      "type": "function"
    }
  ],
  "bytecode": "0x608060405260405180610160016040528061012f81526020016200522661012f9139600890805190602001906200003892919062001719565b50604051806103c001604052806040518060400160405280600881526020017f4d616e746973706100000000000000000000000000000000000000000000000081525081526020016040518060400160405280600681526020017f546573746f72000000000000000000000000000000000000000000000000000081525081526020016040518060400160405280600581526020017f526570696300000000000000000000000000000000000000000000000000000081525081526020016040518060400160405280600781526020017f4461726c696e670000000000000000000000000000000000000000000000000081525081526020016040518060400160405280600b81526020017f416363656e747561626c6500000000000000000000000000000000000000000081525081526020016040518060400160405280600881526020017f4375636f6c696e6500000000000000000000000000000000000000000000000081525081526020016040518060400160405280600981526020017f5375626f6666696365000000000000000000000000000000000000000000000081525081526020016040518060400160405280600e81526020017f436f6e73756d6d61746976656c7900000000000000000000000000000000000081525081526020016040518060400160405280600a81526020017f5472696d6163756c61720000000000000000000000000000000000000000000081525081526020016040518060400160405280600681526020017f526574746564000000000000000000000000000000000000000000000000000081525081526020016040518060400160405280600981526020017f547269637573706964000000000000000000000000000000000000000000000081525081526020016040518060400160405280600781526020017f43616e74696e610000000000000000000000000000000000000000000000000081525081526020016040518060400160405280600981526020017f536368656c6c696e67000000000000000000000000000000000000000000000081525081526020016040518060400160405280600d81526020017f4269646972656374696f6e616c0000000000000000000000000000000000000081525081526020016040518060400160405280600a81526020017f556e69666f726d697a650000000000000000000000000000000000000000000081525081526020016040518060400160405280600b81526020017f536163636861726174656400000000000000000000000000000000000000000081525081526020016040518060400160405280600681526020017f556e66656564000000000000000000000000000000000000000000000000000081525081526020016040518060400160405280600881526020017f53696d696c697a6500000000000000000000000000000000000000000000000081525081526020016040518060400160405280600d81526020017f53797a796765746963616c6c790000000000000000000000000000000000000081525081526020016040518060400160405280600a81526020017f50726f6d6f6e746f72790000000000000000000000000000000000000000000081525081526020016040518060400160405280600881526020017f43726f737377617900000000000000000000000000000000000000000000000081525081526020016040518060400160405280600e81526020017f44697361636b6e6f776c6564676500000000000000000000000000000000000081525081526020016040518060400160405280600881526020017f4269706c616e616c00000000000000000000000000000000000000000000000081525081526020016040518060400160405280601581526020017f44697370726f706f7274696f6e61626c656e657373000000000000000000000081525081526020016040518060400160405280600a81526020017f4c6f766162696c6974790000000000000000000000000000000000000000000081525081526020016040518060400160405280600681526020017f4f70706f7365000000000000000000000000000000000000000000000000000081525081526020016040518060400160405280600c81526020017f556e6465727374726174756d000000000000000000000000000000000000000081525081526020016040518060400160405280600981526020017f59747465726269756d000000000000000000000000000000000000000000000081525081526020016040518060400160405280600b81526020017f496e637265617361626c6500000000000000000000000000000000000000000081525081526020016040518060400160405280600981526020017f56657274656272616c0000000000000000000000000000000000000000000000815250815250600990601e6200073f929190620017aa565b50604051806103c001604052806040518060400160405280600981526020017f5472697374616e6961000000000000000000000000000000000000000000000081525081526020016040518060400160405280600881526020017f55707772656e636800000000000000000000000000000000000000000000000081525081526020016040518060400160405280600b81526020017f556e626c65616368696e6700000000000000000000000000000000000000000081525081526020016040518060400160405280600681526020017f57696766756c000000000000000000000000000000000000000000000000000081525081526020016040518060400160405280600b81526020017f4f63746f6c61746572616c00000000000000000000000000000000000000000081525081526020016040518060400160405280600981526020017f446f776e7374616765000000000000000000000000000000000000000000000081525081526020016040518060400160405280600e81526020017f4167726f73746f6772617068657200000000000000000000000000000000000081525081526020016040518060400160405280600b81526020017f546865726f6c6f6769737400000000000000000000000000000000000000000081525081526020016040518060400160405280600f81526020017f416e6f6d6f72686f6d626f6964616c000000000000000000000000000000000081525081526020016040518060400160405280600a81526020017f456c657068616e7472790000000000000000000000000000000000000000000081525081526020016040518060400160405280600981526020017f4469616374696e616c000000000000000000000000000000000000000000000081525081526020016040518060400160405280600981526020017f526170747572697374000000000000000000000000000000000000000000000081525081526020016040518060400160405280600881526020017f576972656c696b6500000000000000000000000000000000000000000000000081525081526020016040518060400160405280600881526020017f57656c736865727900000000000000000000000000000000000000000000000081525081526020016040518060400160405280600a81526020017f44657370697361626c650000000000000000000000000000000000000000000081525081526020016040518060400160405280600881526020017f4f7070696c61746500000000000000000000000000000000000000000000000081525081526020016040518060400160405280600c81526020017f436f756e74657276656e6f6d000000000000000000000000000000000000000081525081526020016040518060400160405280600581526020017f457468696400000000000000000000000000000000000000000000000000000081525081526020016040518060400160405280600881526020017f477261706869746500000000000000000000000000000000000000000000000081525081526020016040518060400160405280600781526020017f556e65617274680000000000000000000000000000000000000000000000000081525081526020016040518060400160405280601081526020017f50616c656f706879746f6c6f676973740000000000000000000000000000000081525081526020016040518060400160405280600b81526020017f446563617073756c61746500000000000000000000000000000000000000000081525081526020016040518060400160405280600781526020017f53656c6c6f75740000000000000000000000000000000000000000000000000081525081526020016040518060400160405280600581526020017f496472796c00000000000000000000000000000000000000000000000000000081525081526020016040518060400160405280600a81526020017f53796e746163746963730000000000000000000000000000000000000000000081525081526020016040518060400160405280600581526020017f46696c697800000000000000000000000000000000000000000000000000000081525081526020016040518060400160405280600981526020017f43616d706372616674000000000000000000000000000000000000000000000081525081526020016040518060400160405280600e81526020017f436f6e747269627574696f6e616c00000000000000000000000000000000000081525081526020016040518060400160405280600a81526020017f4e696e6e7977617463680000000000000000000000000000000000000000000081525081526020016040518060400160405280600881526020017f506c616e7461676f000000000000000000000000000000000000000000000000815250815250600a90601e62000e46929190620017aa565b50604051806103c001604052806040518060400160405280600981526020017f537069726f6e656d61000000000000000000000000000000000000000000000081525081526020016040518060400160405280600e81526020017f416e61727468726f75736e65737300000000000000000000000000000000000081525081526020016040518060400160405280600781526020017f4361726e6f73650000000000000000000000000000000000000000000000000081525081526020016040518060400160405280600a81526020017f53636f7463686e6573730000000000000000000000000000000000000000000081525081526020016040518060400160405280600681526020017f54726970656c000000000000000000000000000000000000000000000000000081525081526020016040518060400160405280600d81526020017f496e6465666174696761626c790000000000000000000000000000000000000081525081526020016040518060400160405280600681526020017f437261626572000000000000000000000000000000000000000000000000000081525081526020016040518060400160405280600981526020017f556e73656375726564000000000000000000000000000000000000000000000081525081526020016040518060400160405280600e81526020017f50726f736f70616e74726974697300000000000000000000000000000000000081525081526020016040518060400160405280600f81526020017f496e746572666f6c6c6963756c6172000000000000000000000000000000000081525081526020016040518060400160405280600981526020017f50726573637574616c000000000000000000000000000000000000000000000081525081526020016040518060400160405280600d81526020017f43697263756d6d756e64616e650000000000000000000000000000000000000081525081526020016040518060400160405280600b81526020017f526f75676863617374657200000000000000000000000000000000000000000081525081526020016040518060400160405280600681526020017f48656c706c79000000000000000000000000000000000000000000000000000081525081526020016040518060400160405280600a81526020017f537562686570617469630000000000000000000000000000000000000000000081525081526020016040518060400160405280600a81526020017f50697374696c6c6f64790000000000000000000000000000000000000000000081525081526020016040518060400160405280600b81526020017f5375626f7264696e61746500000000000000000000000000000000000000000081525081526020016040518060400160405280600881526020017f4d756369666f726d00000000000000000000000000000000000000000000000081525081526020016040518060400160405280600a81526020017f46617363696174656c790000000000000000000000000000000000000000000081525081526020016040518060400160405280600a81526020017f496e736563746976616c0000000000000000000000000000000000000000000081525081526020016040518060400160405280600981526020017f556e746561736c6564000000000000000000000000000000000000000000000081525081526020016040518060400160405280600b81526020017f437261746572656c6c757300000000000000000000000000000000000000000081525081526020016040518060400160405280600981526020017f43616d657261746564000000000000000000000000000000000000000000000081525081526020016040518060400160405280600c81526020017f436f6c6c6567696174696f6e000000000000000000000000000000000000000081525081526020016040518060400160405280600681526020017f447573746572000000000000000000000000000000000000000000000000000081525081526020016040518060400160405280600a81526020017f4269626c696f746865630000000000000000000000000000000000000000000081525081526020016040518060400160405280600681526020017f4a7574697368000000000000000000000000000000000000000000000000000081525081526020016040518060400160405280600b81526020017f4d6963617762657269736800000000000000000000000000000000000000000081525081526020016040518060400160405280600981526020017f526f6f6b6572696564000000000000000000000000000000000000000000000081525081526020016040518060400160405280600b81526020017f54656c656f7374656f7573000000000000000000000000000000000000000000815250815250600b90601e6200154d929190620017aa565b503480156200155b57600080fd5b506040518060400160405280600981526020017f5371756172654e465400000000000000000000000000000000000000000000008152506040518060400160405280600681526020017f53515541524500000000000000000000000000000000000000000000000000008152508160009080519060200190620015e092919062001719565b508060019080519060200190620015f992919062001719565b505050620016476040518060400160405280601881526020017f54686973206973206d79204e465420636f6e74726163742e00000000000000008152506200164d60201b6200110b1760201c565b620019cb565b620016ed8160405160240162001664919062001942565b6040516020818303038152906040527f41304fac000000000000000000000000000000000000000000000000000000007bffffffffffffffffffffffffffffffffffffffffffffffffffffffff19166020820180517bffffffffffffffffffffffffffffffffffffffffffffffffffffffff8381831617835250505050620016f060201b60201c565b50565b60008151905060006a636f6e736f6c652e6c6f679050602083016000808483855afa5050505050565b828054620017279062001995565b90600052602060002090601f0160209004810192826200174b576000855562001797565b82601f106200176657805160ff191683800117855562001797565b8280016001018555821562001797579182015b828111156200179657825182559160200191906001019062001779565b5b509050620017a6919062001811565b5090565b828054828255906000526020600020908101928215620017fe579160200282015b82811115620017fd578251829080519060200190620017ec92919062001719565b5091602001919060010190620017cb565b5b5090506200180d919062001830565b5090565b5b808211156200182c57600081600090555060010162001812565b5090565b5b808211156200185457600081816200184a919062001858565b5060010162001831565b5090565b508054620018669062001995565b6000825580601f106200187a57506200189b565b601f0160209004906000526020600020908101906200189a919062001811565b5b50565b600081519050919050565b600082825260208201905092915050565b60005b83811015620018da578082015181840152602081019050620018bd565b83811115620018ea576000848401525b50505050565b6000601f19601f8301169050919050565b60006200190e826200189e565b6200191a8185620018a9565b93506200192c818560208601620018ba565b6200193781620018f0565b840191505092915050565b600060208201905081810360008301526200195e818462001901565b905092915050565b7f4e487b7100000000000000000000000000000000000000000000000000000000600052602260045260246000fd5b60006002820490506001821680620019ae57607f821691505b60208210811415620019c557620019c462001966565b5b50919050565b61384b80620019db6000396000f3fe608060405234801561001057600080fd5b50600436106101165760003560e01c806395d89b41116100a2578063c575757a11610071578063c575757a14610303578063c87b56dd14610333578063dd51babf14610363578063de9d132f14610381578063e985e9c51461038b57610116565b806395d89b411461027d578063a22cb4651461029b578063b187301f146102b7578063b88d4fde146102e757610116565b806323b872dd116100e957806323b872dd146101b55780632de38d68146101d157806342842e0e146102015780636352211e1461021d57806370a082311461024d57610116565b806301ffc9a71461011b57806306fdde031461014b578063081812fc14610169578063095ea7b314610199575b600080fd5b61013560048036038101906101309190612318565b6103bb565b6040516101429190612360565b60405180910390f35b61015361049d565b6040516101609190612414565b60405180910390f35b610183600480360381019061017e919061246c565b61052f565b60405161019091906124da565b60405180910390f35b6101b360048036038101906101ae9190612521565b610575565b005b6101cf60048036038101906101ca9190612561565b61068d565b005b6101eb60048036038101906101e6919061246c565b6106ed565b6040516101f89190612414565b60405180910390f35b61021b60048036038101906102169190612561565b610863565b005b6102376004803603810190610232919061246c565b610883565b60405161024491906124da565b60405180910390f35b610267600480360381019061026291906125b4565b610935565b60405161027491906125f0565b60405180910390f35b6102856109ed565b6040516102929190612414565b60405180910390f35b6102b560048036038101906102b09190612637565b610a7f565b005b6102d160048036038101906102cc919061246c565b610a95565b6040516102de9190612414565b60405180910390f35b61030160048036038101906102fc91906127ac565b610b8d565b005b61031d6004803603810190610318919061246c565b610bef565b60405161032a9190612414565b60405180910390f35b61034d6004803603810190610348919061246c565b610ce7565b60405161035a9190612414565b60405180910390f35b61036b610dfa565b60405161037891906125f0565b60405180910390f35b610389610e0b565b005b6103a560048036038101906103a0919061282f565b611077565b6040516103b29190612360565b60405180910390f35b60007f80ac58cd000000000000000000000000000000000000000000000000000000007bffffffffffffffffffffffffffffffffffffffffffffffffffffffff1916827bffffffffffffffffffffffffffffffffffffffffffffffffffffffff1916148061048657507f5b5e139f000000000000000000000000000000000000000000000000000000007bffffffffffffffffffffffffffffffffffffffffffffffffffffffff1916827bffffffffffffffffffffffffffffffffffffffffffffffffffffffff1916145b806104965750610495826111a4565b5b9050919050565b6060600080546104ac9061289e565b80601f01602080910402602001604051908101604052809291908181526020018280546104d89061289e565b80156105255780601f106104fa57610100808354040283529160200191610525565b820191906000526020600020905b81548152906001019060200180831161050857829003601f168201915b5050505050905090565b600061053a8261120e565b6004600083815260200190815260200160002060009054906101000a900473ffffffffffffffffffffffffffffffffffffffff169050919050565b600061058082610883565b90508073ffffffffffffffffffffffffffffffffffffffff168373ffffffffffffffffffffffffffffffffffffffff1614156105f1576040517f08c379a00000000000000000000000000000000000000000000000000000000081526004016105e890612942565b60405180910390fd5b8073ffffffffffffffffffffffffffffffffffffffff16610610611259565b73ffffffffffffffffffffffffffffffffffffffff16148061063f575061063e81610639611259565b611077565b5b61067e576040517f08c379a0000000000000000000000000000000000000000000000000000000008152600401610675906129d4565b60405180910390fd5b6106888383611261565b505050565b61069e610698611259565b8261131a565b6106dd576040517f08c379a00000000000000000000000000000000000000000000000000000000081526004016106d490612a66565b60405180910390fd5b6106e88383836113af565b505050565b606060006107216106fd84611616565b60405160200161070d9190612b0e565b604051602081830303815290604052611777565b90506107626040518060400160405280600d81526020017f72616e64202d20736565643a2000000000000000000000000000000000000000815250826117aa565b600980549050816107739190612b5f565b90506107b46040518060400160405280601381526020017f72616e64202d20666972737420776f72643a2000000000000000000000000000815250826117aa565b600981815481106107c8576107c7612b90565b5b9060005260206000200180546107dd9061289e565b80601f01602080910402602001604051908101604052809291908181526020018280546108099061289e565b80156108565780601f1061082b57610100808354040283529160200191610856565b820191906000526020600020905b81548152906001019060200180831161083957829003601f168201915b5050505050915050919050565b61087e83838360405180602001604052806000815250610b8d565b505050565b6000806002600084815260200190815260200160002060009054906101000a900473ffffffffffffffffffffffffffffffffffffffff169050600073ffffffffffffffffffffffffffffffffffffffff168173ffffffffffffffffffffffffffffffffffffffff16141561092c576040517f08c379a000000000000000000000000000000000000000000000000000000000815260040161092390612c0b565b60405180910390fd5b80915050919050565b60008073ffffffffffffffffffffffffffffffffffffffff168273ffffffffffffffffffffffffffffffffffffffff1614156109a6576040517f08c379a000000000000000000000000000000000000000000000000000000000815260040161099d90612c9d565b60405180910390fd5b600360008373ffffffffffffffffffffffffffffffffffffffff1673ffffffffffffffffffffffffffffffffffffffff168152602001908152602001600020549050919050565b6060600180546109fc9061289e565b80601f0160208091040260200160405190810160405280929190818152602001828054610a289061289e565b8015610a755780601f10610a4a57610100808354040283529160200191610a75565b820191906000526020600020905b815481529060010190602001808311610a5857829003601f168201915b5050505050905090565b610a91610a8a611259565b8383611846565b5050565b60606000610ac9610aa584611616565b604051602001610ab59190612d09565b604051602081830303815290604052611777565b9050600a8054905081610adc9190612b5f565b9050600a8181548110610af257610af1612b90565b5b906000526020600020018054610b079061289e565b80601f0160208091040260200160405190810160405280929190818152602001828054610b339061289e565b8015610b805780601f10610b5557610100808354040283529160200191610b80565b820191906000526020600020905b815481529060010190602001808311610b6357829003601f168201915b5050505050915050919050565b610b9e610b98611259565b8361131a565b610bdd576040517f08c379a0000000000000000000000000000000000000000000000000000000008152600401610bd490612a66565b60405180910390fd5b610be9848484846119b3565b50505050565b60606000610c23610bff84611616565b604051602001610c0f9190612d77565b604051602081830303815290604052611777565b9050600b8054905081610c369190612b5f565b9050600b8181548110610c4c57610c4b612b90565b5b906000526020600020018054610c619061289e565b80601f0160208091040260200160405190810160405280929190818152602001828054610c8d9061289e565b8015610cda5780601f10610caf57610100808354040283529160200191610cda565b820191906000526020600020905b815481529060010190602001808311610cbd57829003601f168201915b5050505050915050919050565b6060610cf28261120e565b6000600660008481526020019081526020016000208054610d129061289e565b80601f0160208091040260200160405190810160405280929190818152602001828054610d3e9061289e565b8015610d8b5780601f10610d6057610100808354040283529160200191610d8b565b820191906000526020600020905b815481529060010190602001808311610d6e57829003601f168201915b505050505090506000610d9c611a0f565b9050600081511415610db2578192505050610df5565b600082511115610de7578082604051602001610dcf929190612d99565b60405160208183030381529060405292505050610df5565b610df084611a26565b925050505b919050565b6000610e066007611a8e565b905090565b6000610e176007611a8e565b90506000610e24826106ed565b90506000610e3183610a95565b90506000610e3e84610bef565b90506000838383604051602001610e5793929190612dbd565b60405160208183030381529060405290506000600882604051602001610e7e929190612ece565b6040516020818303038152906040529050610ecd6040518060400160405280601581526020017f0a2d2d2d2d2d205356472064617461202d2d2d2d2d000000000000000000000081525061110b565b610ed68161110b565b610f146040518060400160405280601581526020017f2d2d2d2d2d2d2d2d2d2d2d2d2d2d2d2d2d2d2d2d0a000000000000000000000081525061110b565b6000610f4883610f2384611a9c565b604051602001610f34929190613053565b604051602081830303815290604052611a9c565b9050600081604051602001610f5d91906130e4565b6040516020818303038152906040529050610fac6040518060400160405280601581526020017f0a2d2d2d2d2d20546f6b656e20555249202d2d2d2d000000000000000000000081525061110b565b610fb58161110b565b610ff36040518060400160405280601581526020017f2d2d2d2d2d2d2d2d2d2d2d2d2d2d2d2d2d2d2d2d0a000000000000000000000081525061110b565b610ffd3389611c34565b6110078882611c52565b61102a6040518060600160405280602581526020016137b1602591398933611cc6565b6110346007611d65565b7febb98688741ffa4c7589bf325de30cf7becb63de567842e1ccdb6cb949fdc82c3389604051611065929190613106565b60405180910390a15050505050505050565b6000600560008473ffffffffffffffffffffffffffffffffffffffff1673ffffffffffffffffffffffffffffffffffffffff16815260200190815260200160002060008373ffffffffffffffffffffffffffffffffffffffff1673ffffffffffffffffffffffffffffffffffffffff16815260200190815260200160002060009054906101000a900460ff16905092915050565b6111a18160405160240161111f9190612414565b6040516020818303038152906040527f41304fac000000000000000000000000000000000000000000000000000000007bffffffffffffffffffffffffffffffffffffffffffffffffffffffff19166020820180517bffffffffffffffffffffffffffffffffffffffffffffffffffffffff8381831617835250505050611d7b565b50565b60007f01ffc9a7000000000000000000000000000000000000000000000000000000007bffffffffffffffffffffffffffffffffffffffffffffffffffffffff1916827bffffffffffffffffffffffffffffffffffffffffffffffffffffffff1916149050919050565b61121781611da4565b611256576040517f08c379a000000000000000000000000000000000000000000000000000000000815260040161124d90612c0b565b60405180910390fd5b50565b600033905090565b816004600083815260200190815260200160002060006101000a81548173ffffffffffffffffffffffffffffffffffffffff021916908373ffffffffffffffffffffffffffffffffffffffff160217905550808273ffffffffffffffffffffffffffffffffffffffff166112d483610883565b73ffffffffffffffffffffffffffffffffffffffff167f8c5be1e5ebec7d5bd14f71427d1e84f3dd0314c0f7b2291e5b200ac8c7c3b92560405160405180910390a45050565b60008061132683610883565b90508073ffffffffffffffffffffffffffffffffffffffff168473ffffffffffffffffffffffffffffffffffffffff16148061136857506113678185611077565b5b806113a657508373ffffffffffffffffffffffffffffffffffffffff1661138e8461052f565b73ffffffffffffffffffffffffffffffffffffffff16145b91505092915050565b8273ffffffffffffffffffffffffffffffffffffffff166113cf82610883565b73ffffffffffffffffffffffffffffffffffffffff1614611425576040517f08c379a000000000000000000000000000000000000000000000000000000000815260040161141c906131a1565b60405180910390fd5b600073ffffffffffffffffffffffffffffffffffffffff168273ffffffffffffffffffffffffffffffffffffffff161415611495576040517f08c379a000000000000000000000000000000000000000000000000000000000815260040161148c90613233565b60405180910390fd5b6114a0838383611e10565b6114ab600082611261565b6001600360008573ffffffffffffffffffffffffffffffffffffffff1673ffffffffffffffffffffffffffffffffffffffff16815260200190815260200160002060008282546114fb9190613282565b925050819055506001600360008473ffffffffffffffffffffffffffffffffffffffff1673ffffffffffffffffffffffffffffffffffffffff168152602001908152602001600020600082825461155291906132b6565b92505081905550816002600083815260200190815260200160002060006101000a81548173ffffffffffffffffffffffffffffffffffffffff021916908373ffffffffffffffffffffffffffffffffffffffff160217905550808273ffffffffffffffffffffffffffffffffffffffff168473ffffffffffffffffffffffffffffffffffffffff167fddf252ad1be2c89b69c2b068fc378daa952ba7f163c4a11628f55a4df523b3ef60405160405180910390a4611611838383611e15565b505050565b6060600082141561165e576040518060400160405280600181526020017f30000000000000000000000000000000000000000000000000000000000000008152509050611772565b600082905060005b600082146116905780806116799061330c565b915050600a826116899190613355565b9150611666565b60008167ffffffffffffffff8111156116ac576116ab612681565b5b6040519080825280601f01601f1916602001820160405280156116de5781602001600182028036833780820191505090505b5090505b6000851461176b576001826116f79190613282565b9150600a856117069190612b5f565b603061171291906132b6565b60f81b81838151811061172857611727612b90565b5b60200101907effffffffffffffffffffffffffffffffffffffffffffffffffffffffffffff1916908160001a905350600a856117649190613355565b94506116e2565b8093505050505b919050565b60008160405160200161178a9190613386565b6040516020818303038152906040528051906020012060001c9050919050565b61184282826040516024016117c092919061339d565b6040516020818303038152906040527f9710a9d0000000000000000000000000000000000000000000000000000000007bffffffffffffffffffffffffffffffffffffffffffffffffffffffff19166020820180517bffffffffffffffffffffffffffffffffffffffffffffffffffffffff8381831617835250505050611d7b565b5050565b8173ffffffffffffffffffffffffffffffffffffffff168373ffffffffffffffffffffffffffffffffffffffff1614156118b5576040517f08c379a00000000000000000000000000000000000000000000000000000000081526004016118ac90613419565b60405180910390fd5b80600560008573ffffffffffffffffffffffffffffffffffffffff1673ffffffffffffffffffffffffffffffffffffffff16815260200190815260200160002060008473ffffffffffffffffffffffffffffffffffffffff1673ffffffffffffffffffffffffffffffffffffffff16815260200190815260200160002060006101000a81548160ff0219169083151502179055508173ffffffffffffffffffffffffffffffffffffffff168373ffffffffffffffffffffffffffffffffffffffff167f17307eab39ab6107e8899845ad3d59bd9653f200f220920489ca2b5937696c31836040516119a69190612360565b60405180910390a3505050565b6119be8484846113af565b6119ca84848484611e1a565b611a09576040517f08c379a0000000000000000000000000000000000000000000000000000000008152600401611a00906134ab565b60405180910390fd5b50505050565b606060405180602001604052806000815250905090565b6060611a318261120e565b6000611a3b611a0f565b90506000815111611a5b5760405180602001604052806000815250611a86565b80611a6584611616565b604051602001611a76929190612d99565b6040516020818303038152906040525b915050919050565b600081600001549050919050565b60606000825190506000811415611ac55760405180602001604052806000815250915050611c2f565b60006003600283611ad691906132b6565b611ae09190613355565b6004611aec91906134cb565b90506000602082611afd91906132b6565b67ffffffffffffffff811115611b1657611b15612681565b5b6040519080825280601f01601f191660200182016040528015611b485781602001600182028036833780820191505090505b50905060006040518060600160405280604081526020016137d6604091399050600181016020830160005b86811015611bec5760038101905062ffffff818a015116603f8160121c168401518060081b905060ff603f83600c1c1686015116810190508060081b905060ff603f8360061c1686015116810190508060081b905060ff603f831686015116810190508060e01b90508084526004840193505050611b73565b506003860660018114611c065760028114611c1657611c21565b613d3d60f01b6002830352611c21565b603d60f81b60018303525b508484525050819450505050505b919050565b611c4e828260405180602001604052806000815250611fb1565b5050565b611c5b82611da4565b611c9a576040517f08c379a0000000000000000000000000000000000000000000000000000000008152600401611c9190613597565b60405180910390fd5b80600660008481526020019081526020016000209080519060200190611cc1929190612209565b505050565b611d60838383604051602401611cde939291906135b7565b6040516020818303038152906040527fe3849f79000000000000000000000000000000000000000000000000000000007bffffffffffffffffffffffffffffffffffffffffffffffffffffffff19166020820180517bffffffffffffffffffffffffffffffffffffffffffffffffffffffff8381831617835250505050611d7b565b505050565b6001816000016000828254019250508190555050565b60008151905060006a636f6e736f6c652e6c6f679050602083016000808483855afa5050505050565b60008073ffffffffffffffffffffffffffffffffffffffff166002600084815260200190815260200160002060009054906101000a900473ffffffffffffffffffffffffffffffffffffffff1673ffffffffffffffffffffffffffffffffffffffff1614159050919050565b505050565b505050565b6000611e3b8473ffffffffffffffffffffffffffffffffffffffff1661200c565b15611fa4578373ffffffffffffffffffffffffffffffffffffffff1663150b7a02611e64611259565b8786866040518563ffffffff1660e01b8152600401611e86949392919061364a565b602060405180830381600087803b158015611ea057600080fd5b505af1925050508015611ed157506040513d601f19601f82011682018060405250810190611ece91906136ab565b60015b611f54573d8060008114611f01576040519150601f19603f3d011682016040523d82523d6000602084013e611f06565b606091505b50600081511415611f4c576040517f08c379a0000000000000000000000000000000000000000000000000000000008152600401611f43906134ab565b60405180910390fd5b805181602001fd5b63150b7a0260e01b7bffffffffffffffffffffffffffffffffffffffffffffffffffffffff1916817bffffffffffffffffffffffffffffffffffffffffffffffffffffffff191614915050611fa9565b600190505b949350505050565b611fbb838361202f565b611fc86000848484611e1a565b612007576040517f08c379a0000000000000000000000000000000000000000000000000000000008152600401611ffe906134ab565b60405180910390fd5b505050565b6000808273ffffffffffffffffffffffffffffffffffffffff163b119050919050565b600073ffffffffffffffffffffffffffffffffffffffff168273ffffffffffffffffffffffffffffffffffffffff16141561209f576040517f08c379a000000000000000000000000000000000000000000000000000000000815260040161209690613724565b60405180910390fd5b6120a881611da4565b156120e8576040517f08c379a00000000000000000000000000000000000000000000000000000000081526004016120df90613790565b60405180910390fd5b6120f460008383611e10565b6001600360008473ffffffffffffffffffffffffffffffffffffffff1673ffffffffffffffffffffffffffffffffffffffff168152602001908152602001600020600082825461214491906132b6565b92505081905550816002600083815260200190815260200160002060006101000a81548173ffffffffffffffffffffffffffffffffffffffff021916908373ffffffffffffffffffffffffffffffffffffffff160217905550808273ffffffffffffffffffffffffffffffffffffffff16600073ffffffffffffffffffffffffffffffffffffffff167fddf252ad1be2c89b69c2b068fc378daa952ba7f163c4a11628f55a4df523b3ef60405160405180910390a461220560008383611e15565b5050565b8280546122159061289e565b90600052602060002090601f016020900481019282612237576000855561227e565b82601f1061225057805160ff191683800117855561227e565b8280016001018555821561227e579182015b8281111561227d578251825591602001919060010190612262565b5b50905061228b919061228f565b5090565b5b808211156122a8576000816000905550600101612290565b5090565b6000604051905090565b600080fd5b600080fd5b60007fffffffff0000000000000000000000000000000000000000000000000000000082169050919050565b6122f5816122c0565b811461230057600080fd5b50565b600081359050612312816122ec565b92915050565b60006020828403121561232e5761232d6122b6565b5b600061233c84828501612303565b91505092915050565b60008115159050919050565b61235a81612345565b82525050565b60006020820190506123756000830184612351565b92915050565b600081519050919050565b600082825260208201905092915050565b60005b838110156123b557808201518184015260208101905061239a565b838111156123c4576000848401525b50505050565b6000601f19601f8301169050919050565b60006123e68261237b565b6123f08185612386565b9350612400818560208601612397565b612409816123ca565b840191505092915050565b6000602082019050818103600083015261242e81846123db565b905092915050565b6000819050919050565b61244981612436565b811461245457600080fd5b50565b60008135905061246681612440565b92915050565b600060208284031215612482576124816122b6565b5b600061249084828501612457565b91505092915050565b600073ffffffffffffffffffffffffffffffffffffffff82169050919050565b60006124c482612499565b9050919050565b6124d4816124b9565b82525050565b60006020820190506124ef60008301846124cb565b92915050565b6124fe816124b9565b811461250957600080fd5b50565b60008135905061251b816124f5565b92915050565b60008060408385031215612538576125376122b6565b5b60006125468582860161250c565b925050602061255785828601612457565b9150509250929050565b60008060006060848603121561257a576125796122b6565b5b60006125888682870161250c565b93505060206125998682870161250c565b92505060406125aa86828701612457565b9150509250925092565b6000602082840312156125ca576125c96122b6565b5b60006125d88482850161250c565b91505092915050565b6125ea81612436565b82525050565b600060208201905061260560008301846125e1565b92915050565b61261481612345565b811461261f57600080fd5b50565b6000813590506126318161260b565b92915050565b6000806040838503121561264e5761264d6122b6565b5b600061265c8582860161250c565b925050602061266d85828601612622565b9150509250929050565b600080fd5b600080fd5b7f4e487b7100000000000000000000000000000000000000000000000000000000600052604160045260246000fd5b6126b9826123ca565b810181811067ffffffffffffffff821117156126d8576126d7612681565b5b80604052505050565b60006126eb6122ac565b90506126f782826126b0565b919050565b600067ffffffffffffffff82111561271757612716612681565b5b612720826123ca565b9050602081019050919050565b82818337600083830152505050565b600061274f61274a846126fc565b6126e1565b90508281526020810184848401111561276b5761276a61267c565b5b61277684828561272d565b509392505050565b600082601f83011261279357612792612677565b5b81356127a384826020860161273c565b91505092915050565b600080600080608085870312156127c6576127c56122b6565b5b60006127d48782880161250c565b94505060206127e58782880161250c565b93505060406127f687828801612457565b925050606085013567ffffffffffffffff811115612817576128166122bb565b5b6128238782880161277e565b91505092959194509250565b60008060408385031215612846576128456122b6565b5b60006128548582860161250c565b92505060206128658582860161250c565b9150509250929050565b7f4e487b7100000000000000000000000000000000000000000000000000000000600052602260045260246000fd5b600060028204905060018216806128b657607f821691505b602082108114156128ca576128c961286f565b5b50919050565b7f4552433732313a20617070726f76616c20746f2063757272656e74206f776e6560008201527f7200000000000000000000000000000000000000000000000000000000000000602082015250565b600061292c602183612386565b9150612937826128d0565b604082019050919050565b6000602082019050818103600083015261295b8161291f565b9050919050565b7f4552433732313a20617070726f76652063616c6c6572206973206e6f7420746f60008201527f6b656e206f776e6572206e6f7220617070726f76656420666f7220616c6c0000602082015250565b60006129be603e83612386565b91506129c982612962565b604082019050919050565b600060208201905081810360008301526129ed816129b1565b9050919050565b7f4552433732313a2063616c6c6572206973206e6f7420746f6b656e206f776e6560008201527f72206e6f7220617070726f766564000000000000000000000000000000000000602082015250565b6000612a50602e83612386565b9150612a5b826129f4565b604082019050919050565b60006020820190508181036000830152612a7f81612a43565b9050919050565b600081905092915050565b7f46495253545f574f524400000000000000000000000000000000000000000000600082015250565b6000612ac7600a83612a86565b9150612ad282612a91565b600a82019050919050565b6000612ae88261237b565b612af28185612a86565b9350612b02818560208601612397565b80840191505092915050565b6000612b1982612aba565b9150612b258284612add565b915081905092915050565b7f4e487b7100000000000000000000000000000000000000000000000000000000600052601260045260246000fd5b6000612b6a82612436565b9150612b7583612436565b925082612b8557612b84612b30565b5b828206905092915050565b7f4e487b7100000000000000000000000000000000000000000000000000000000600052603260045260246000fd5b7f4552433732313a20696e76616c696420746f6b656e2049440000000000000000600082015250565b6000612bf5601883612386565b9150612c0082612bbf565b602082019050919050565b60006020820190508181036000830152612c2481612be8565b9050919050565b7f4552433732313a2061646472657373207a65726f206973206e6f74206120766160008201527f6c6964206f776e65720000000000000000000000000000000000000000000000602082015250565b6000612c87602983612386565b9150612c9282612c2b565b604082019050919050565b60006020820190508181036000830152612cb681612c7a565b9050919050565b7f5345434f4e445f574f5244000000000000000000000000000000000000000000600082015250565b6000612cf3600b83612a86565b9150612cfe82612cbd565b600b82019050919050565b6000612d1482612ce6565b9150612d208284612add565b915081905092915050565b7f54484952445f574f524400000000000000000000000000000000000000000000600082015250565b6000612d61600a83612a86565b9150612d6c82612d2b565b600a82019050919050565b6000612d8282612d54565b9150612d8e8284612add565b915081905092915050565b6000612da58285612add565b9150612db18284612add565b91508190509392505050565b6000612dc98286612add565b9150612dd58285612add565b9150612de18284612add565b9150819050949350505050565b60008190508160005260206000209050919050565b60008154612e108161289e565b612e1a8186612a86565b94506001821660008114612e355760018114612e4657612e79565b60ff19831686528186019350612e79565b612e4f85612dee565b60005b83811015612e7157815481890152600182019150602081019050612e52565b838801955050505b50505092915050565b7f3c2f746578743e3c2f7376673e00000000000000000000000000000000000000600082015250565b6000612eb8600d83612a86565b9150612ec382612e82565b600d82019050919050565b6000612eda8285612e03565b9150612ee68284612add565b9150612ef182612eab565b91508190509392505050565b7f7b226e616d65223a202200000000000000000000000000000000000000000000600082015250565b6000612f33600a83612a86565b9150612f3e82612efd565b600a82019050919050565b7f222c20226465736372697074696f6e223a20224120686967686c79206163636c60008201527f61696d656420636f6c6c656374696f6e206f6620737175617265732e222c202260208201527f696d616765223a2022646174613a696d6167652f7376672b786d6c3b6261736560408201527f36342c0000000000000000000000000000000000000000000000000000000000606082015250565b6000612ff1606383612a86565b9150612ffc82612f49565b606382019050919050565b7f227d000000000000000000000000000000000000000000000000000000000000600082015250565b600061303d600283612a86565b915061304882613007565b600282019050919050565b600061305e82612f26565b915061306a8285612add565b915061307582612fe4565b91506130818284612add565b915061308c82613030565b91508190509392505050565b7f646174613a6170706c69636174696f6e2f6a736f6e3b6261736536342c000000600082015250565b60006130ce601d83612a86565b91506130d982613098565b601d82019050919050565b60006130ef826130c1565b91506130fb8284612add565b915081905092915050565b600060408201905061311b60008301856124cb565b61312860208301846125e1565b9392505050565b7f4552433732313a207472616e736665722066726f6d20696e636f72726563742060008201527f6f776e6572000000000000000000000000000000000000000000000000000000602082015250565b600061318b602583612386565b91506131968261312f565b604082019050919050565b600060208201905081810360008301526131ba8161317e565b9050919050565b7f4552433732313a207472616e7366657220746f20746865207a65726f2061646460008201527f7265737300000000000000000000000000000000000000000000000000000000602082015250565b600061321d602483612386565b9150613228826131c1565b604082019050919050565b6000602082019050818103600083015261324c81613210565b9050919050565b7f4e487b7100000000000000000000000000000000000000000000000000000000600052601160045260246000fd5b600061328d82612436565b915061329883612436565b9250828210156132ab576132aa613253565b5b828203905092915050565b60006132c182612436565b91506132cc83612436565b9250827fffffffffffffffffffffffffffffffffffffffffffffffffffffffffffffffff0382111561330157613300613253565b5b828201905092915050565b600061331782612436565b91507fffffffffffffffffffffffffffffffffffffffffffffffffffffffffffffffff82141561334a57613349613253565b5b600182019050919050565b600061336082612436565b915061336b83612436565b92508261337b5761337a612b30565b5b828204905092915050565b60006133928284612add565b915081905092915050565b600060408201905081810360008301526133b781856123db565b90506133c660208301846125e1565b9392505050565b7f4552433732313a20617070726f766520746f2063616c6c657200000000000000600082015250565b6000613403601983612386565b915061340e826133cd565b602082019050919050565b60006020820190508181036000830152613432816133f6565b9050919050565b7f4552433732313a207472616e7366657220746f206e6f6e20455243373231526560008201527f63656976657220696d706c656d656e7465720000000000000000000000000000602082015250565b6000613495603283612386565b91506134a082613439565b604082019050919050565b600060208201905081810360008301526134c481613488565b9050919050565b60006134d682612436565b91506134e183612436565b9250817fffffffffffffffffffffffffffffffffffffffffffffffffffffffffffffffff048311821515161561351a57613519613253565b5b828202905092915050565b7f45524337323155524953746f726167653a2055524920736574206f66206e6f6e60008201527f6578697374656e7420746f6b656e000000000000000000000000000000000000602082015250565b6000613581602e83612386565b915061358c82613525565b604082019050919050565b600060208201905081810360008301526135b081613574565b9050919050565b600060608201905081810360008301526135d181866123db565b90506135e060208301856125e1565b6135ed60408301846124cb565b949350505050565b600081519050919050565b600082825260208201905092915050565b600061361c826135f5565b6136268185613600565b9350613636818560208601612397565b61363f816123ca565b840191505092915050565b600060808201905061365f60008301876124cb565b61366c60208301866124cb565b61367960408301856125e1565b818103606083015261368b8184613611565b905095945050505050565b6000815190506136a5816122ec565b92915050565b6000602082840312156136c1576136c06122b6565b5b60006136cf84828501613696565b91505092915050565b7f4552433732313a206d696e7420746f20746865207a65726f2061646472657373600082015250565b600061370e602083612386565b9150613719826136d8565b602082019050919050565b6000602082019050818103600083015261373d81613701565b9050919050565b7f4552433732313a20746f6b656e20616c7265616479206d696e74656400000000600082015250565b600061377a601c83612386565b915061378582613744565b602082019050919050565b600060208201905081810360008301526137a98161376d565b905091905056fe416e204e465420772f20494420257320686173206265656e206d696e74656420746f2025734142434445464748494a4b4c4d4e4f505152535455565758595a6162636465666768696a6b6c6d6e6f707172737475767778797a303132333435363738392b2fa2646970667358221220834e78f2fc83cdbb0798e133999d8046d30e5ebd02e1ce148c58288fbb80db6264736f6c634300080900333c73766720786d6c6e733d27687474703a2f2f7777772e77332e6f72672f323030302f73766727207072657365727665417370656374526174696f3d27784d696e594d696e206d656574272076696577426f783d273020302033353020333530273e3c7374796c653e2e62617365207b2066696c6c3a2077686974653b20666f6e742d66616d696c793a2073657269663b20666f6e742d73697a653a20323470783b207d3c2f7374796c653e3c726563742077696474683d273130302527206865696768743d2731303025272066696c6c3d27626c61636b27202f3e3c7465787420783d273530252720793d273530252720636c6173733d27626173652720646f6d696e616e742d626173656c696e653d276d6964646c652720746578742d616e63686f723d276d6964646c65273e",
  "linkReferences": {},
  "deployedLinkReferences": {}
}